:020000040800F2
:100000002012002015040008ED010008EF0100088F
:10001000F9010008FB010008FD01000800000000D4
:10002000000000000000000000000000FF010008C8
:100030000102000800000000030200080502000899
:100040002F0400082F0400082F0400082F040008C4
:100050002F0400082F0400082F0400082F040008B4
:100060002F0400082F0400082F0400082F040008A4
:100070002F0400082F0400082F0400082F04000894
:100080002F0400082F0400082F0400082F04000884
:100090002F0400082F0400082F0400082F04000874
:1000A0002F0400082F0400082F0400082F04000864
:1000B0002F040008070200082F0400082F0400087E
:1000C0002F0400082F0400082F0400082F04000844
:1000D0002F040008092300082F0400082F0400083B
:1000E0002F0400082F0400082F04000800F002F875
:1000F00000F06AF80AA090E8000C82448344AAF158
:100100000107DA4501D100F05FF8AFF2090EBAE855
:100110000F0013F0010F18BFFB1A43F0010318473B
:100120002C6A00004C6A00000A444FF0000C10F8E2
:10013000013B13F0070408BF10F8014B1D1108BF65
:1001400010F8015B641E05D010F8016B641E01F805
:10015000016BF9D113F0080F1EBF10F8014BAD1C55
:100160000C1B09D16D1E58BF01F801CBFAD505E073
:1001700014F8016B01F8016B6D1EF9D59142D6D3CD
:10018000704700000023002400250026103A28BFF5
:1001900078C1FBD8520728BF30C148BF0B607047F9
:1001A000662905F07086782903F074820020704774
:1001B0001FB503F0DFFD04000020002104F0DCFD8A
:1001C000E0601FBD10B510BD03F0DCFE1146FFF767
:1001D000EFFF02F0FBF803F0FAFE03B4FFF7F2FFC3
:1001E00003BC02F02DF8000030BF0000704709A0EA
:1001F00003F008FA00BFFEE770477047704770478A
:1002000070477047704710B50121094801F00AFE98
:1002100010BD00000D0A486172644661756C745F20
:1002200048616E646C6572204552524F520D0A004F
:10023000000400400CB50020019000906C4800685C
:1002400040F480306A49086000BF6948006800F4E3
:10025000003000900198401C0190009818B9019856
:10026000B0F5A06FF1D16248006800F4003010B121
:100270000120009001E0002000900098012843D167
:100280005C48006840F010005A4908600846006861
:1002900020F0030008600846006840F00200086093
:1002A00053484068524948600846406848600846DC
:1002B000406840F4806048600846406820F47C1044
:1002C00048600846406840F4E81048600846006806
:1002D00040F08070086000BF4548006800F0007082
:1002E0000028F9D04248406820F0030040494860A7
:1002F0000846406840F00200486000BF3C48406843
:1003000000F00C000828F9D10CBD10B5FFF792FFE2
:1003100010BD10B53648006840F00100344908604F
:10032000084640683449084031494860084600683A
:10033000324908402E4908600846006820F48020B1
:1003400008600846406820F4FE0048604FF41F0033
:100350008860FFF7DAFF4FF000602949086010BDA0
:1003600010B5002100200022214B5B6803F00C0136
:1003700021B1042906D0082928D107E0214B224CBD
:10038000236027E01F4B204C236023E0184B5B6861
:1003900003F47010164B5B6803F48032022303EB06
:1003A000904022B9194B4343174C23600DE0104B8A
:1003B0005B6803F4003323B1144B4343124C2360B6
:1003C00003E0104B4343104C236003E00D4B0E4CF5
:1003D000236000BF00BF064B5B68C3F303130C4CE4
:1003E000E15C094B1B68CB40074C236010BD00004B
:1003F00000100240002002400000FFF8FFFFF6FE60
:1004000008ED00E000127A000000002000093D0025
:10041000040000200948804709480047FEE7FEE73E
:10042000FEE7FEE7FEE7FEE7FEE7FEE7FEE7FEE7A4
:1004300004480549054A064B7047000013030008AD
:10044000ED000008200C002020120020200E0020CB
:10045000200E002031490143314A1160704770B5C8
:10046000002100230F22C47804B32D4C246804F427
:10047000E064C4F5E064210AC1F10403CA40447891
:1004800004FA03F18478144021430901254C0678CD
:10049000A155047804F01F050124AC4005786D11C6
:1004A000AD0005F1E025C5F8004109E0047804F04D
:1004B0001F050124AC401C4D0678761145F82640F6
:1004C00070BD1A4A0A400243154B1B1F1A60704741
:1004D00039B1134A121D12680243114B1B1D1A60D9
:1004E00006E00F4A121D126882430D4B1B1D1A6055
:1004F0007047042808D14FF0E021096941F0040158
:100500004FF0E022116107E04FF0E021096921F08E
:1005100004014FF0E0221161704700000000FA056D
:100520000CED00E000E400E080E100E080FFFF1F50
:1005300010B50446CC48844208D10121042000F0C3
:100540002DFB0021042000F029FB46E0C74884422F
:1005500008D10121082000F021FB0021082000F033
:100560001DFB3AE0C248844208D10121102000F06E
:1005700015FB0021102000F011FB2EE0BD48844245
:1005800008D10121202000F009FB0021202000F0EB
:1005900005FB22E0B848844208D10121402000F048
:1005A000FDFA0021402000F0F9FA16E0B348844239
:1005B00008D10121802000F0F1FA0021802000F014
:1005C000EDFA0AE0AE48844207D10121801500F01F
:1005D000E5FA0021A01500F0E1FA10BD10B50121E7
:1005E000084600F0DBFA0021012000F0D7FA10BD28
:1005F0002DE9F041024600250026002000230024BA
:10060000002791F803C00CF00F0591F803C00CF01F
:10061000100CBCF1000F03D091F802C04CEA0505A4
:1006200091F800C0BCF1000F31D0146800202BE01D
:100630004FF0010C0CFA00F3B1F800C00CEA03060D
:100640009E4220D183004FF00F0C0CFA03F7BC43FD
:1006500005FA03FC4CEA040491F803C0BCF1280F2E
:1006600006D14FF0010C0CFA00FCC2F814C00AE0ED
:1006700091F803C0BCF1480F05D14FF0010C0CFA02
:1006800000FCC2F810C0401C0828D1D31460B1F897
:1006900000C0BCF1FF0F34DD546800202EE000F1F3
:1006A000080C4FF0010808FA0CF3B1F800C00CEA8E
:1006B00003069E4221D183004FF00F0C0CFA03F782
:1006C000BC4305FA03FC4CEA040491F803C0BCF1F6
:1006D000280F05D100F1080C08FA0CF8C2F81480B4
:1006E00091F803C0BCF1480F07D100F1080C4FF09E
:1006F000010808FA0CF8C2F81080401C0828CED374
:100700005460BDE8F0814FF6FF71018002218170D5
:100710000421C17070470246002093680B400BB162
:10072000012000E0002070470146886880B27047D1
:1007300002460020D3680B400BB1012000E00020EE
:1007400070470146C86880B27047016170474161D7
:1007500070470AB1016100E041617047C1607047B4
:100760004FF480320A4382618161826182698269C9
:10077000704702460020434B18684FF680731840BC
:1007800040EA021008433F4B186070473E49C86179
:100790007047F0B50A46002300240021002500F030
:1007A0000046B6F1004F02D1364EF16901E0354EF8
:1007B0007168C0F3034583B200F44016B6F5401FDC
:1007C00008D121F070612F4E766826F070662D4FAB
:1007D0007E6012E000F48016B6F5801F06D1032675
:1007E00006FA05F4A14341F0706106E0460D3601BA
:1007F00003FA06F6B14341F0706122B1460D3601AD
:1008000003FA06F6314300F00046B6F1004F02D17C
:100810001C4EF16101E01B4E7160F0BD30B500224D
:100820008B071C0F0F2303FA04F2164B08338C10AE
:1008300053F824309343134C08348D1044F825307A
:1008400023468C1053F824308C07240F00FA04F44C
:1008500023430C4C08348D1044F8253030BD0A4930
:10086000DC3108607047000000080140000C0140C6
:10087000001001400014014000180140001C01401C
:10088000002001400000014000002042DF480068D5
:1008900040F00100DD49086008464068DC49084036
:1008A000DA49486008460068DA490840D7490860D4
:1008B0000846006820F4802008600846406820F45C
:1008C000FE0048604FF41F0088607047CF490968F8
:1008D00021F48031CD4A11601146096821F480214C
:1008E0001160B0F5803F03D0B0F5802F0ED106E047
:1008F000C649096841F48031C44A116007E0C34920
:10090000096841F4A021C14A116000E000BF00BFA6
:10091000704710B501460022002300204A11012A29
:1009200002D1BA4C236806E0022A02D1B74C236AEE
:1009300001E0B64C636A01F01F02012494401C40A0
:100940000CB1012000E0002010BD38B5002000905F
:100950000024002500BF3120FFF7DBFF054600988B
:10096000401C00900098B0F5A06F01D0002DF2D08F
:100970003120FFF7CEFF08B1012400E0002420461B
:1009800038BD01460020A14A106820F0F80040EA76
:10099000C10010607047A0490860704702460020FF
:1009A0009A4B586820F47C1042EA01031843974B95
:1009B0005860704798490866704701460020934A7E
:1009C000506820F003000843506070478F4840682B
:1009D00000F00C007047014600208C4A506820F05F
:1009E000F00008435060704701460020874A506875
:1009F00020F4E06008435060704701460020834ABD
:100A0000506820F4605040EAC1005060704729B13E
:100A10007E4A527A02437D4B5A7204E07B4A527AF4
:100A200082437A4B5A7270477B49D83108607047CD
:100A300001460020754A506820F440400843506049
:100A400070470021714A20321170704A82F82010DC
:100A5000012802D004280AD104E001216B4A203287
:100A6000117005E00521694A2032117000E000BFD5
:100A700000BF70476949086070476449096A0143CB
:100A8000624A11627047654944390860704730B561
:100A900000210022002400235C4D6D6805F00C014C
:100AA00021B1042905D0082923D105E05C4D05605A
:100AB00022E05B4D05601FE0544D6D6805F4701237
:100AC000524D6D6805F48034022505EB92421CB945
:100AD000544D554305600BE04C4D6D6805F40035F1
:100AE0001DB1504D5543056002E04D4D5543056025
:100AF00002E04B4D056000BF00BF444D6D6805F03E
:100B0000F0010909484D6B5C0568DD4045603F4DCB
:100B10006D6805F4E061090A434D6B5C4568DD4092
:100B200085603A4D6D6805F46051C90A3E4D6B5CB5
:100B30004568DD40C560354D6D6805F44041890B61
:100B40003A4D6B5CC568B5FBF3F5056130BD29B165
:100B50002E4A526902432D4B5A6104E02B4A5269D6
:100B600082432A4B5A61704729B1284A926902434D
:100B7000264B9A6104E0254A92698243234B9A618D
:100B8000704729B1214AD2690243204BDA6104E05F
:100B90001E4AD26982431D4BDA61704729B11B4A54
:100BA000D2680243194BDA6004E0184AD2688243E3
:100BB000164BDA60704729B1144A12690243134B8D
:100BC0001A6104E0114A12698243104B1A6170479E
:100BD00012494039086070470F49C86470470B4993
:100BE000C87170470948406A40F080700749486200
:100BF000704701460020054A92680A400AB1012068
:100C000000E00020704701498872704700100240E0
:100C10000000FFF8FFFFF6FE00004242800442425F
:100C200000127A0000093D0014000020240000207A
:100C300010B50446FB48844209D101218803FFF71F
:100C4000ADFF00214FF48040FFF7A8FF32E0F648E7
:100C5000844209D101214804FFF7ADFF00214FF480
:100C60000030FFF7A8FF25E0F048844209D10121B8
:100C70008804FFF7A0FF00214FF48020FFF79BFFBF
:100C800018E0EB48844209D10121C804FFF793FF23
:100C900000214FF40020FFF78EFF0BE0E54884426F
:100CA00008D101210805FFF786FF00214FF48010CD
:100CB000FFF781FF10BD2DE9F04786B005460E46CF
:100CC0000024A24600BFA1460027B08900B100BFA2
:100CD0002F462C8A4CF6FF700440F08804432C8287
:100CE000AC894EF6F3100440B0883189084371890D
:100CF00008430443AC81AC8A4FF6FF400440B089FE
:100D00000443AC8201A8FFF7C2FEC648874202D165
:100D1000DDF810A001E0DDF80CA0A88900F4004087
:100D200040B10AEBCA0000EB0A1031684900B0FB81
:100D3000F1F807E00AEBCA0000EB0A1031688900FD
:100D4000B0FBF1F86420B8FBF0F004012009642145
:100D500001FB1089A88900F4004040B1322000EB6B
:100D6000C900B0FBF1F000F00700044308E03220B6
:100D700000EB09106421B0FBF1F000F00F00044318
:100D80002C8106B0BDE8F0874FF4165101600021B8
:100D90008180C18001810C214181002181817047C6
:100DA00010B502460020108A4FF2FF0318400B884E
:100DB0004C8823438C882343CC88234318431082D8
:100DC00010BD0021018041808180C180704721B128
:100DD000828942F40052828104E082894DF6FF73D9
:100DE0001A4082817047F0B5034600240026002592
:100DF000002040F66A17B94200D100BF1846C1F37F
:100E0000421401F01F06012707FA06F5012C01D153
:100E10000C3004E0022C01D1103000E014301AB183
:100E200007682F43076002E00768AF430760F0BD23
:100E30001AB1838A0B43838202E0838A8B438382C5
:100E40007047028A4FF6F0731A400282028A0A4300
:100E50000282704782894FF2FF731A408281828931
:100E60000A438281704721B1828942F00202828165
:100E700004E082894FF6FD731A4082817047028A2E
:100E80004FF6DF731A400282028A0A4302827047D9
:100E900021B1028A42F48042028204E0028A4BF6C7
:100EA000FF731A4002827047C1F3080282807047C4
:100EB00001468888C0F308007047818941F001012C
:100EC00081817047028BD2B20283028B42EA0122F7
:100ED00002837047028B02F47F420283028B0A4333
:100EE0000283704721B1828A42F02002828204E0AC
:100EF000828A4FF6DF731A408282704721B1828A5C
:100F000042F01002828204E0828A4FF6EF731A40A8
:100F10008282704721B1828A42F00802828204E014
:100F2000828A4FF6F7731A408282704721B1828914
:100F300042F40042828103E08289C2F30E02828180
:100F4000704721B1828A42F40062828204E0828A80
:100F50004FF2FF731A4082827047828A4FF6FB730A
:100F60001A408282828A0A438282704721B1828A31
:100F700042F00202828204E0828A4FF6FD731A4038
:100F80008282704702460020B1F5007F00D100BF89
:100F900013880B400BB1012000E00020704701F4E2
:100FA0000072B2F5007F00D100BFCA4302807047D3
:100FB00070B50246002400230025002040F66A1682
:100FC000B14200D100BFC1F3421501F01F03012659
:100FD00006FA03F3012D02D19689334006E0022D73
:100FE00002D1168A334001E0968A33400C12012662
:100FF00006FA04F41688344013B10CB1012000E065
:10100000002070BD10B50022002340F66A14A142F2
:1010100000D100BF0A1201249440A3B2DC43048033
:1010200010BD00000038014000440040004800406E
:10103000004C00400050004010B50446FE48844279
:1010400008D10121C014FFF7A9FD0021E014FFF72A
:10105000A5FDC4E0B4F1804F08D101210846FFF797
:10106000AAFD00210120FFF7A6FDB8E0F348844265
:1010700008D101210220FFF79EFD00210220FFF789
:101080009AFDACE0EE48844208D101210420FFF72C
:1010900092FD00210420FFF78EFDA0E0E948844284
:1010A00008D101210820FFF786FD00210820FFF765
:1010B00082FD94E0E448844208D101211020FFF72A
:1010C0007AFD00211020FFF776FD88E0DF4884429A
:1010D00008D101212020FFF76EFD00212020FFF71D
:1010E0006AFD7CE0DA48844208D101214014FFF710
:1010F00055FD00216014FFF751FD70E0D548844292
:1011000009D10121C804FFF749FD00214FF4002057
:10111000FFF744FD63E0D048844209D1012108056E
:10112000FFF73CFD00214FF48010FFF737FD56E03C
:10113000CA48844209D101214805FFF72FFD00214B
:101140004FF40010FFF72AFD49E0C548844208D15A
:1011500001214020FFF72FFD00214020FFF72BFD4C
:101160003DE0C048844208D101218020FFF723FDE3
:1011700000218020FFF71FFD31E0BB48844208D1E9
:1011800001218015FFF717FD0021A015FFF713FDC2
:1011900025E0B648844209D101210804FFF7FEFC8E
:1011A00000214FF48030FFF7F9FC18E0B04884428A
:1011B00009D101214804FFF7F1FC00214FF4003070
:1011C000FFF7ECFC0BE0AB48844208D10121880416
:1011D000FFF7E4FC00214FF48020FFF7DFFC10BD97
:1011E00000220288944B98420ED0994B98420BD023
:1011F000B0F1804F08D0914B984205D0904B984267
:1012000002D0904B984204D14FF68F731A404B880E
:101210001A438D4B984207D08C4B984204D04FF61E
:10122000FF431A40CB881A4302808B8883850B8842
:101230000385814B98420BD0854B984208D08B4B4D
:10124000984205D08A4B984202D08A4B984201D1ED
:101250000B7A038601238382704770B50024002235
:101260000023058C4FF6FE7635400584028C83887A
:10127000048B4FF68F752C40B51E2C400D882C43E7
:10128000751E2A400D892A434D882A436A4DA8427B
:101290000BD06F4DA84208D0744DA84205D0744DB4
:1012A000A84202D0734DA84213D14FF6F7752A40D9
:1012B0004D892A434FF6FB752A408D882A434FF605
:1012C000FF652B404FF6FF552B408D892B43CD8971
:1012D0002B4383800483CD888586028470BD70B5DE
:1012E000002400220023058C4FF6EF76354005845C
:1012F000028C8388048B48F6FF752C404FF6FF451F
:101300002C400D884FF6FF7606EA05252C434FF654
:10131000DF752A400D8906EA05152A434D8806EA3D
:1013200005152A43444DA84202D0494DA8421DD17B
:101330004FF67F752A404D894FF6FF7606EA051570
:101340002A434FF6BF752A408D8806EA05152A43C1
:101350004FF6FF352B404FF2FF752B408D8906EA83
:1013600085052B43CD8906EA85052B4383800483BD
:10137000CD880587028470BD70B50024002200234B
:10138000058C4FF6FF6635400584028C8388848B7C
:101390004FF68F752C404FF6FC752C400D882C4372
:1013A0004FF6FF552A400D894FF6FF7606EA0525D0
:1013B0002A434D8806EA05252A431F4DA84202D03C
:1013C000234DA8421DD14FF2FF752A404D894FF69B
:1013D000FF7606EA05252A434FF6FF352A408D8819
:1013E00006EA05252A434EF6FF752B404DF6FF759C
:1013F0002B408D8906EA05152B43CD8906EA051594
:101400002B4383808483CD888587028470BD70B52B
:10141000002200230024058C4EF6FF76354005841B
:10142000038C8488828B48F6FF752A404FF6FF456F
:101430002A400D8820E00000002C014000040040FC
:1014400000080040000C0040001000400014004064
:1014500000340140004C0140005001400054014064
:1014600000180040001C00400020004000400140E7
:1014700000440140004801404FF6FF7606EA05258A
:101480002A434DF6FF752B400D8906EA05352B439F
:101490004D8806EA05352B43FA4DA84202D0FA4D95
:1014A000A84208D14BF6FF752C408D894FF6FF7688
:1014B00006EA85152C4384808283CD88A0F84050AD
:1014C000038470BD828B4FF2FF331A408283828B7C
:1014D0004FF6FF7303EA01231A4382837047F0B586
:1014E0000C461546002200210026078C4EF6FF7C94
:1014F00007EA0C070784828B018C4FF6FF7707EA17
:10150000043640F6FF473A404FF6FF7707EA0527D3
:101510003A434FF6FF7707EA03373A43D94FB842C9
:101520000ED0D94FB8420BD0B0F1804F08D0D74F72
:10153000B84205D0D64FB84202D0D64FB84206D1F5
:101540004DF6FF77394046F48057394305E047F6BA
:10155000FF57394044F48057394382830184F0BDFA
:10156000828B4FF6F3731A408283828B0A43828305
:101570007047F0B50C461546002200210026078C66
:101580004FF6FF6C07EA0C070784828B018C4FF63D
:10159000FF7707EA04264FF60C773A404FF6FF77BD
:1015A00007EA03172F433A43B64FB8420ED0B64F5F
:1015B000B8420BD0B0F1804F08D0B44FB84205D03C
:1015C000B34FB84202D0B34FB84206D14FF6FF57DF
:1015D000394046F48077394305E04FF2FF573940F0
:1015E00044F48077394382830184F0BD028B4FF24B
:1015F000FF331A400283028B4FF6FF7303EA012385
:101600001A4302837047F0B50C46154600220021AC
:101610000026078C4FF6EF7C07EA0C070784028B45
:10162000018C4FF6FF7707EA041640F6FF473A4071
:101630004FF6FF7707EA03373A434FF6FF7707EA9B
:1016400005273A438F4FB8420ED08F4FB8420BD088
:10165000B0F1804F08D08D4FB84205D08C4FB842C2
:1016600002D08C4FB84206D14FF6DF77394046F0B2
:101670001007394305E04FF65F77394044F0100713
:10168000394302830184F0BD028B4FF6F3731A4095
:101690000283028B0A4302837047F0B50C4615465D
:1016A00000220021068C4FF6FE773E400684028B16
:1016B000018C4FF60C7632407E1C06EA03162E4350
:1016C0003243704EB0420ED06F4EB0420BD0B0F1EC
:1016D000804F08D06D4EB04205D06D4EB04202D062
:1016E0006C4EB04206D14FF6FD76314044F0010613
:1016F000314305E04FF6F576314044F001063143C1
:1017000002830184F0BD70B505460C465D488542F4
:101710000ED05D4885420BD0B5F1804F08D05B48B4
:10172000854205D05A48854202D05A48854200D1A8
:1017300000E000BF208850B92389A288618828462C
:10174000FFF7ABFFE1882846FFF79EFF25E02088E2
:1017500004280AD12389A28861882846FFF753FF0D
:10176000E1882846FFF742FF17E0208808280AD1C1
:101770002389A28861882846FFF7FBFEE188284676
:10178000FFF7EEFE09E02389A28861882846FFF76B
:10179000A6FEE1882846FFF795FE70BD2DE9F041D1
:1017A00005460C4600260127608808B9022600E09D
:1017B0000026A088012801D1022700E00127208807
:1017C000A0B92389A28861882846FFF766FFE188CF
:1017D0002846FFF759FF23893A4631462846FFF746
:1017E00012FFE1882846FFF701FF13E02389A28852
:1017F00061882846FFF707FFE1882846FFF7F6FED5
:1018000023893A4631462846FFF747FFE1882846B4
:10181000FFF73AFFBDE8F0810A884B881A438B88AE
:101820001A43CB881A430B891A434B891A438B8975
:101830001A43A0F8442070474FF6FF7181800021C1
:101840000180C18041800172704700210180418088
:101850008180C180018141818181C18170470021E6
:1018600001804180012181800021C1800181704778
:101870000021018041808180C1800181418181817D
:1018800070470000002C014000340140000400407B
:1018900000080040000C004021B1028842F0010223
:1018A000028004E002884FF6FE731A4002807047FF
:1018B00031B1B0F8442042F40042A0F8442005E0E1
:1018C000B0F84420C2F30E02A0F8442070471AB1C9
:1018D00083890B43838102E083898B438381704733
:1018E0008182704741EA0203A0F8483070471AB17C
:1018F00083890B43838102E083898B438381704713
:1019000001894FF6F8721140018170470A460021A3
:1019100001894FF68F73194011430181704730B52B
:1019200004460D4629462046FFF7F0FF208940F087
:101930000700208130BD2DE9F04104460D461646D2
:101940001F46602D06D13B46012231462046FFF757
:101950005AFE05E03B46012231462046FFF79DFE38
:1019600029462046FFF7D2FF208940F0070020815A
:10197000BDE8F08130B50C4600210189C9B24FF6AF
:10198000FF7505EA0325154325432943018130BD31
:101990002DE9F04105460E46174698460024434679
:1019A0003A4631462846FFF7E5FF2C894FF6F87096
:1019B000044044F007044FF68F70044044F0700474
:1019C0002C81BDE8F081F0B504460D4616461F4651
:1019D0003B46324629462046FFF7CCFF208940F49B
:1019E00080402081F0BD0185828270470A46002137
:1019F00001884FF68F731940114301807047F0B58D
:101A00000C4615461E460021002200230189028B48
:101A1000038C4FF6F877394021434FF6FC473A40A4
:101A200040F201173A434FF6DD773B404FF6FF7720
:101A300007EA06172F433B43018102830384F0BD6D
:101A40000A460021018B4FF68F7319401143018321
:101A500070470A460021018B48F6FF7319404FF684
:101A6000FF7303EA02231943018370470A460021EA
:101A7000818B4FF68F7319401143818370470A465B
:101A80000021818B48F6FF7319404FF6FF7303EA7C
:101A9000022319438183704721B1028842F08002FA
:101AA000028004E002884FF67F731A40028070477C
:101AB00021B1828842F00402828004E082884FF6DD
:101AC000FB731A408280704721B1828842F008027D
:101AD000828004E082884FF6F7731A408280704754
:101AE00021B1828842F00102828004E082884FF6B0
:101AF000FE731A40828070470A460021018B4FF620
:101B0000F77319401143018370470A460021018B86
:101B10004FF2FF7319404FF6FF7303EA0223194394
:101B2000018370470A460021818B4FF6F7731940F5
:101B30001143818370470A460021818B4FF2FF7366
:101B400019404FF6FF7303EA02231943818370475C
:101B50000A460021018B4FF6FB73194011430183A4
:101B600070470A460021018B4FF6FF3319404FF6AC
:101B7000FF7303EA02231943018370470A460021D9
:101B8000818B4FF6FB7319401143818370470A46DE
:101B90000021818B4FF6FF3319404FF6FF7303EAA4
:101BA00002231943818370470A460021018B4FF6B7
:101BB0007F7319401143018370470A460021018B4E
:101BC000C1F30E014FF6FF7303EA022319430183A9
:101BD00070470A460021818B4FF67F7319401143ED
:101BE000818370470A460021818BC1F30E014FF6B5
:101BF000FF7303EA02231943818370470A460021D9
:101C0000018C4FF6FD7319401143018470470A4659
:101C10000021018C4FF6F77319401143018470477E
:101C20000A460021018C4FF6DF7319404FF6FF730F
:101C300003EA02131943018470470A460021018C0C
:101C40004FF67F7319404FF6FF7303EA02131943EF
:101C5000018470470A460021018C4FF6FF5319405A
:101C60004FF6FF7303EA02231943018470470A46C3
:101C70000021018C4FF2FF7319404FF6FF7303EA06
:101C800002231943018470470A460021018C4DF656
:101C9000FF7319404FF6FF7303EA023319430184BF
:101CA000704730B5002301248C40A3B2048C9C43C0
:101CB0000484048C02FA01F5ADB22C43048430BDD7
:101CC00030B5002304248C40A3B2048C9C430484CC
:101CD000048C02FA01F5ADB22C43048430BD70B51A
:101CE0000346002000241846183001258D40ACB270
:101CF0001D8CA5431D8409B1082909D100EB6100A1
:101D0000056825F0700505600568154305600EE05F
:101D10000D1FC5F34E052844056825F4E045056010
:101D200005684FF6FF7606EA02263543056070BD6A
:101D300021B1028842F00202028004E002884FF6DC
:101D4000FD731A400280704721B1028842F00402FC
:101D5000028004E002884FF6FB731A40028070474D
:101D600021B1828842F08002828004E082884FF6AE
:101D70007F731A408280704702884FF6F7731A40CB
:101D8000028002880A430280704782884FF68F7370
:101D90001A40828082880A438280704702894FF607
:101DA000F8731A40028102890A430281704702894E
:101DB0004FF67F731A40028102890A4302817047FD
:101DC000818470478185704781867047018770479D
:101DD00081877047A0F84010704702884FF6FF4394
:101DE0001A40028002880A43028070470146888EAA
:101DF00070470146088F70470146888F704701463B
:101E0000B1F8400070470146888C70470146088D44
:101E1000704702460020138A0B400BB1012000E0FE
:101E200000207047CA430282704730B50246002046
:101E300000230024158A05EA0103958905EA0104B7
:101E400013B10CB1012000E0002030BDCA43028272
:101E5000704700004FF0E021096921F004014FF0C4
:101E6000E0221161C21700EB5272C2F3C7022B4B82
:101E70001A701946097801EB4102C2EBC1114FF605
:101E8000FF7202EAC101264A118070470146234AC7
:101E900012784A434FF0E0235A6100229A611A46B1
:101EA000126942F001021A6100BF4FF0E02210698E
:101EB00000F001021AB100F48032002AF5D04FF090
:101EC000E022126922F001024FF0E0231A610022A1
:101ED0009A6170470146124A12884A434FF0E02344
:101EE0005A6100229A611A46126942F001021A618F
:101EF00000BF4FF0E022106900F001021AB100F4B7
:101F00008032002AF5D04FF0E022126922F001025F
:101F10004FF0E0231A6100229A61704728000020E8
:101F20002A000020B94A11880A131303C1F30322BF
:101F300003EB0223C1F3031203EB021201F00F03C0
:101F40001A4491B24D22027043224270552282708F
:101F50004322C27061220271702242713A22827160
:101F60004FF47A7291FBF2F232B14FF47A7291FB34
:101F7000F2F23032C27101E02022C2714FF47A7263
:101F800091FBF2F302FB1312642392FBF3F2303263
:101F90000272642291FBF2F302FB13120A2392FBFA
:101FA000F3F2303242720A2291FBF2F302FB131277
:101FB000303282724B22C27262220273704770B555
:101FC0000446934805682A4692A1204601F026FB64
:101FD00070BD934A0A4002438D4B08331A60704724
:101FE00010B504462046FEF735FA10BDF8B5044694
:101FF0000D4617461E463046FFF7F2FF8DF800707B
:102000008DF801408DF8025001208DF803006846DC
:10201000FEF725FAF8BD00B5002082490861C860C6
:102020001420486100208861C8610846006840F0BB
:1020300001000860084640687B49084079494860CB
:1020400008460068794908407649086008460068F3
:1020500020F4802008600846406820F4FE004860B4
:102060000020886000214FF00060FFF7B2FF00BD44
:1020700010B567481030006840F004006449103122
:1020800008606848C06940F080506649C861684887
:10209000406840F48070664948600846006840F037
:1020A000040008600846006840F002000860FEF77F
:1020B0009BF810BD5F4856490C310860704759497C
:1020C000896941F00101574A91615B49496821F0F2
:1020D000E061594A51601146496841EA0061516026
:1020E000704730B504460025FFF795FF4D4800685E
:1020F00040F480304B49086000BF4A480068400CFB
:102100000028FAD04FF4806046494860A01EC4B24F
:102110000846406840EA844048600846406840F409
:10212000803048604548006840F03200434908600C
:102130003C48006840F080703A49086000BF394868
:102140000068400E0028FAD03648406840F002008F
:102150003449486005E033484068C0F3870505F01E
:102160000305022DF7D130BD01460A2091FBF0F2A4
:1021700000FB12100A2291FBF2F240EA0210C0B2F8
:102180007047014601F00F000A1102EB820200EBDA
:102190004200C0B2704701464FF47A7091FBF0F0F4
:1021A00000034FF47A7291FBF2F302FB13126423E3
:1021B00092FBF3F240EA02201A4691FBF2F302FB93
:1021C00013120A2392FBF3F240EA02101A4691FB23
:1021D000F2F302FB1312104380B27047014608135A
:1021E0004FF47A725043C1F3032202EBC20303EBB4
:1021F000021200EB8200C1F3031202EB820200EB39
:10220000420001F00F02104480B27047E0F7FF1F58
:1022100000ED00E04350552049443A25303858003D
:1022200080FFFF1F001002400000FFF8FFFFF6FED6
:10223000007000400400FA05000001400020024048
:10224000014600BF704700BF5C4A128802F040029E
:10225000002AF9D0C2B2594B1B1D1A80704710B525
:1022600086B0044655480C30008840F480705349CD
:102270000C3108800846008840F0200008804FF4A8
:10228000A063252203210846FFF7B0FE012144F296
:102290000400FEF769FC4948FEF7CAFC4FF40070E1
:1022A000ADF8140003208DF8160018208DF81700E3
:1022B00005A94348FEF79CF94FF48060ADF814007F
:1022C00004208DF8170005A93D48FEF791F9019407
:1022D0000020ADF80800ADF80A00ADF80C00ADF82C
:1022E00010000C20ADF80E0001A93448FEF7E3FC05
:1022F000012240F225513148FEF775FD01212F489A
:10230000FEF765FD06B010BD10B540F225512B4813
:10231000FEF74EFE002850D02848FEF7C9FDC4B293
:102320002848008800F40040002846D1254800884D
:1023300000F4804038B30A2C1ED00D2021490988B2
:10234000C1F30D01204A50541E480088401C1D490D
:10235000088008460088C0F30D0011460C54194847
:102360000088401C17490880084600884BF6FF711A
:1023700008401449088020E01248008840F40040DA
:102380001049088019E00D2C06D10E48008840F451
:1023900080400C49088010E00A480088C0F30D0016
:1023A00009490C5407480088401C06490880084623
:1023B00000883E2801DD0020088010BD0038014063
:1023C0000008014030000020040400204FF4A06009
:1023D000FFF706FE4820FFF73DFD00F06DF91BA258
:1023E0000021084600F0A1FB2EE01D4A1D491E48B1
:1023F00001F0C1F81D491C48006800F04DF81B4A67
:102400000221142000F091FB1648006803F00CFA3A
:10241000044622460B4616A1144801F0FFF8134A61
:102420000421002000F081FB0D48006803F0FCF956
:10243000044622460B4613A10C4801F0EFF80B4A64
:102440000621002000F071FBCFE700003130305250
:102450003CB5E7D7E8B2E2C1BF3C384B0000000012
:102460003C000020380000203400002043040020FD
:10247000CAB5B2BFCAFDBEDD3A2530362E30662061
:1024800020000000D0E9B2BFCAFDBEDD3A253036DB
:102490002E306620200000002DE9F04105460C4654
:1024A0001C49284603F048FC0ED21A49284603F07E
:1024B00055FA804603F0B8F9064632460B4616A197
:1024C000204601F0ABF822E01749284603F034FC1F
:1024D0000ED21549284603F041FA804603F0A4F9CC
:1024E000064632460B4611A1204601F097F80EE051
:1024F0000D49284603F020FB09D2284603F094F941
:10250000064632460B460DA1204601F087F8BDE88D
:10251000F0810000002474492530332E3033664D9D
:10252000A6B820200000000000007A442530332E99
:102530003033664BA6B82020000000002530332E33
:10254000303366A6B820200008B501212820FEF708
:102550000BFB4FF47870ADF8000010208DF80300ED
:1025600003208DF802006946F948FEF741F84FF460
:102570007871F748FEF7E9F80420ADF800006946E5
:10258000F448FEF735F80421F248FEF7DEF808BDFE
:102590000022F14B1A60F14BC3F89C21002116E098
:1025A0000022ED4B0C331A6000F080021AB10122B8
:1025B0001B1D1A6003E00022E74B10331A60012252
:1025C000E54B0C331A60420010464A1CD1B2082970
:1025D000E6DB70470022E04B1A600122DF4BC3F8B4
:1025E0009C21002116E00022DB4B0C331A6000F026
:1025F00080021AB101221B1D1A6003E00022D64B93
:1026000010331A600122D44B0C331A60420010467A
:102610004A1CD1B20829E6DB704730B505460C46A6
:102620000020CD49086000BF00BF05F1B000FFF7F2
:10263000AFFF102101EB1410FFF7AAFF04F00F0009
:10264000FFF7A6FF30BD30B50020C3490860002465
:1026500011E000212046FFF7E0FF002507E0C04918
:1026600001EBC501085DFFF7B5FF681CC5B2802D01
:10267000F5DB601CC4B2082CEBDB0120B649086016
:1026800030BD30B50020B449086000240CE00025BE
:1026900006E00020B24901EBC5010855681CC5B22F
:1026A000802DF6DB601CC4B2082CF0DB0120AA49A7
:1026B0000860FFF7C8FF30BD10B5FFF745FF0020E9
:1026C000A5490860A549C1F898016420FFF702FCFC
:1026D0000120A149091D08601420FFF7FBFBE2203F
:1026E000FFF756FF0520FFF7F5FB2C20FFF750FF03
:1026F0000520FFF7EFFB2E20FFF74AFF0520FFF72D
:10270000E9FB2F20FFF744FF0520FFF7E3FB232021
:10271000FFF73EFF8120FFF73BFF2820FFF738FF40
:10272000A220FFF735FFC820FFF732FFA020FFF7F8
:102730002FFF4020FFF72CFFAF20FFF729FF0120DC
:102740008649C1F89401FFF79CFFFFF77CFF10BD9D
:10275000F0B5144600267F2801DC3F2900DDF0BDDE
:102760000B46CF1701EB5777C7F3C702CF1701EB23
:102770005777FF10A1EBC707FDB20123AB40DEB2D4
:102780004CB1774B03EBC0039B5C3343744F07EBB7
:10279000C007BB5408E0724B03EBC0039B5CB34320
:1027A0006F4F07EBC007BB5400BFD8E72DE9F047D8
:1027B00006460F4690469946DDF820A034460CE0C8
:1027C0003D4606E0524629462046FFF7C1FF681CF9
:1027D000C5B24D45F6DD601CC4B24445F0DDBDE830
:1027E000F087F8B504460D4616461F4601203B46C5
:1027F0002246294600902046FFF7D8FF01202B46AD
:102800003246294600902046FFF7D0FF01203B4684
:102810003246394600902046FFF7C8FF01203B466C
:102820003246294600903046FFF7C0FFF8BDF0B5AC
:10283000144600257F2802DDA0F17F03D8B23F298E
:1028400002DDA1F13F03D9B20B46CF1701EB577759
:10285000C7F3C702CF1701EB5777FF10A1EBC707EC
:10286000FEB20123B340DDB24CB13D4B03EBC003DC
:102870009B5C2B433A4F07EBC007BB5408E0384B37
:1028800003EBC0039B5CAB43354F07EBC007BB5466
:10289000F0BD38B505460C4632480078401C314939
:1028A000087031480078A84203D130480078A0422F
:1028B0000DD0002000902D4800781030C3B22A4877
:1028C00002782A48017828480078FFF76FFF2548EA
:1028D00000782749097888420ADA0120009004F13B
:1028E0001000C3B22A4621462846FFF75FFF14E0D6
:1028F0001F4800781B490978B1EB400F0ADA002025
:10290000009004F11000C3B22A4621462846FFF782
:102910004DFF02E00020134908701348057013486A
:10292000047038BD2DE9F04F80460C4615461E4612
:10293000A346A5F12000C5B2002752E00C2E1BD102
:1029400005EB45000B4901EB800010F8079018E0FB
:10295000000C01400014014094812142008021427A
:1029600083040020F8030020FA030020FB0300206A
:10297000F90300207A5F0008F94800EB051010F811
:1029800007904FF0000A26E009F0800028B12146A8
:102990004046099AFFF7DCFE09E0099808B90120D2
:1029A00000E00020024621464046FFF7D1FE4FEAF4
:1029B00049604FEA1069601CC4B2A4EB0B00B0423E
:1029C00005D15C4608F1010000F0FF0806E00AF1BD
:1029D000010000F0FF0ABAF1080FD5DB00BF781C38
:1029E000C7B2B742AADBBDE8F08F2DE9F04F07462A
:1029F0000C4615461E46A3464FF0000931E095F8F7
:102A000000804FF0000A23E008F0800028B1324631
:102A100021463846FFF70BFF08E00EB9012000E021
:102A20000020024621463846FFF701FF4FEA486082
:102A30004FEA1068601CC4B2A4EB0B00102803D14D
:102A40005C46781CC7B206E00AF1010000F0FF0AFC
:102A5000BAF1080FD8DB00BF6D1C09F1010000F0CE
:102A6000FF09B9F1200FCADBBDE8F08F2DE9F04175
:102A700080460D4616461F467F2D01DDBDE8F081DC
:102A80003F2E00DDFAE7002420E0387804EB041143
:102A9000B44A12F81110884216D1787804EB041168
:102AA00002EB4101497888420ED104EB0410114633
:102AB00001EB4000821C434631462846FFF795FF54
:102AC00005F11000C5B203E0601CC4B2162CDCD3C3
:102AD00000BF00BFD2E7F8B507460D4616461C46B4
:102AE0001EE07A2D00DDF8BD3A2E00DDFBE72078F0
:102AF0007F280ADD2346324629463846FFF7B6FFCF
:102B0000A41C05F11000C5B20AE00097227810233A
:102B100031462846FFF706FF05F10800C5B2641CE0
:102B200020780028DDD100BFDDE770B504460D46F2
:102B30001646E806020EE1B233460120FFF7CBFF4E
:102B4000FFF781FD70BDF0B504460D4616461F46E1
:102B5000E806020EE1B233463846FFF7BCFFF0BD8F
:102B600070B504460D461646E806020E3346214669
:102B70000120FFF7B0FF70BDF8B507460C461546BB
:102B80001E4617E07A2C03DD002405F11000C5B2C3
:102B90003A2D04DD002004460546FFF772FD00973C
:102BA0003278102329462046FFF7BCFE04F10800C6
:102BB000C4B2761C30780028E4D1F8BDF8B50746D9
:102BC0000C4615461E4617E07A2C03DD002405F15D
:102BD0001000C5B23A2D04DD002004460546FFF77B
:102BE00050FD009732780C2329462046FFF79AFEC5
:102BF00004F10800C4B2761C30780028E4D1F8BD96
:102C00002DE9F04381460E4690461F467F2E01DD9A
:102C1000BDE8F083B8F13F0F00DDF9E7002428E0BC
:102C2000002521E0385D05EB05114E4A12F8111020
:102C3000884217D1601C385C05EB051102EB41019D
:102C4000497888420ED105EB0510114601EB400092
:102C5000821C4B4641463046FFF7C7FE06F1100086
:102C6000C6B203E0681CC5B2162DDBD300BFA01CA2
:102C7000C4B2385D0028D3D100BFC9E72DE9FF4FAA
:102C800083B0BDF81410BDF80C20881A002801DBB1
:102C9000014600E0414289B20291BDF81810BDF82A
:102CA0001020881A002801DB014600E0414289B269
:102CB00001914FF00009BDF80800BDF804108842EA
:102CC0000DDA4FF0010904A903A802F047F806A99C
:102CD00005A802F043F801A902A802F03FF8BDF8E8
:102CE0001400BDF80C10401A002801DD012001E09D
:102CF0004FF0FF308246BDF81800BDF81010401AA2
:102D0000002801DD012001E04FF0FF308346BDF8CF
:102D10000C40BDF81060BDF804004700BDF8040089
:102D2000BDF80810401A4FEA4008BDF80400BDF88D
:102D30000810C1EB4005B9F1000F15D00BE0002DD4
:102D400001DA3D4401E05E444544E1B2F0B2109A3C
:102D5000FFF7FEFC5444BDF814008442EFD114E0A8
:102D6000EE630008400000200BE0002D01DA3D4436
:102D700001E05E444544F1B2E0B2109AFFF7E8FC8E
:102D80005444BDF814008442EFD107B0BDE8F08F81
:102D90002DE9F84305460E4617469846089C3346EB
:102DA0003A46314628460094FFF768FF43462A46D4
:102DB000314628460094FFF761FF43463A464146B4
:102DC00028460094FFF75AFF43463A4631463846B4
:102DD0000094FFF753FFBDE8F8832DE9FF4F81B062
:102DE000834617469946DDF838A000243D46780012
:102DF000C0F10306B9F1000F1FD01BE0A0460AE0A6
:102E00001FFA88F3A2B2CDF800A05846029901F04B
:102E10003DFF08F10108A845F2DD002E04DA042088
:102E200000FB0460861D04E0601B042101FB0066BA
:102E30006D1E641CAC42E1DD17E014E0ABB2A2B23F
:102E4000CDF800A05846029901F020FF002E04DAC8
:102E5000042000FB0460861D04E0601B042101FBCC
:102E600000666D1E641CAC42E8DD05B0BDE8F08F65
:102E700008B501211020FDF777FE4FF4C050ADF8E2
:102E8000000010208DF8030003208DF80200694631
:102E9000F648FDF7ADFB4FF4C051F448FDF755FC83
:102EA00008BD10B51420FEF7F1FF10BD10B50120CC
:102EB000EF490860FFF7F5FF10BD10B50020EC49A1
:102EC0000860FFF7EEFF10BD10B50120E849091FAB
:102ED0000860FFF7E6FF10BD10B50020E449091FA8
:102EE0000860FFF7DEFF10BD10B5E048406820F431
:102EF0007020DE4948600846406840F44030486031
:102F00000020DB49091F0860DA49C1F8B001082038
:102F1000FEF7BCFF0120D649091F0860D549C1F85A
:102F2000B0010820FEF7B2FF10BD10B50024CF4855
:102F3000406820F47020CD4948600846406840F45D
:102F4000002048600120CA4908600220FEF79EFF69
:102F50000120C849C1F8AC010220FEF797FF06E046
:102F6000601CC4B2FA2C02DDFFF7BEFF10BDC048E2
:102F7000803800680028F3D1BD49091F086000BFF0
:102F8000F4E710B50020BA49091F0860B748406847
:102F900020F47020B54948600846406840F440304D
:102FA00048600120B349C1F8B0010420FEF76EFF6C
:102FB0000120AF49091F08600420FEF767FF0020C9
:102FC000AC49C1F8AC0110BD10B5A848406820F468
:102FD0007020A64948600846406840F44030486088
:102FE0000120A34908600420FEF750FF0120A149F9
:102FF000C1F8AC010820FEF749FF00209C49086099
:103000000820FEF743FF00209A49C1F8AC0110BD2B
:1030100070B504469548406820F470209349486094
:103020000846406840F44030486000209049091F3D
:1030300008600420FEF72AFF002517E0E0098C490C
:1030400008606006040E0420FEF720FF0120894975
:10305000C1F8AC010420FEF719FF00208449091FC4
:1030600008600420FEF712FF681CC5B2082DE5DBDE
:1030700070BD70B500247D48406820F470207B4905
:1030800048600846406840F4002048600420FEF78D
:10309000FDFE002517E000207549091F0860042087
:1030A000FEF7F4FE01207349C1F8AC016006040E7E
:1030B0006F488038006808B1601CC4B20220FEF777
:1030C000E5FE681CC5B2082DE5DBFFF75AFF204678
:1030D00070BD70B506460C461A25FFF775FF2846E9
:1030E000FFF796FFFFF721FF3046FFF791FFFFF74D
:1030F0001CFFE0B2FFF78CFFFFF717FFFFF7F4FEAE
:1031000070BD70B505461A24FFF75EFF2046FFF735
:103110007FFFFFF70AFFB020FFF77AFFFFF705FFF9
:103120002846FFF775FFFFF700FFFFF7DDFE70BDD4
:1031300070B505462846FFF7E4FF1B24FFF744FF60
:103140002046FFF765FFFFF7F0FEFFF792FF04460A
:10315000FFF717FFFFF7C8FE204670BD10B593219B
:103160008020FFF7B6FF9220FFF7E2FF044624021B
:103170009320FFF7DDFF0444A400A0B210BD2DE9A9
:10318000F04105460E4600271BE0002413E0621CB8
:1031900055F8221055F8240002F0CEFD09D255F85A
:1031A0002480601C55F8200045F82400601C45F878
:1031B0002080601C84B2F01B401EA042E7DC781C1B
:1031C00087B2701EB842E0DCBDE8F0812DE9F0471F
:1031D00006460C46002721463046FFF7D0FFB8468A
:1031E000204604EBD07252102146E31704EB937390
:1031F000A2EBA30295B209E056F82510404602F072
:103200003FFB8046781C87B2681C85B2E21704EB4E
:103210009272921004EBD47302EB6302AA42EBDCCD
:10322000384602F075FC81464946404602F096FB5E
:1032300080464046BDE8F0872DE9F04782460C46BF
:10324000504602F0F1FA07460B4A0C4B02F012F816
:10325000054601F0E1FF81464FEA194020704FEA30
:103260001920607084F80290BDE8F08700100140DA
:10327000B001224200002242B30669014C004040E6
:103280002DE9FF4F8DB0834691461E4631780120CF
:10329000884308B1052000E001200B90307800F051
:1032A000F000302801D1012000E000200A903078A1
:1032B00000F00F080027FFF7DBFD8224002506E061
:1032C0001BF80510E0B2FFF704FF641C6D1C032D12
:1032D000F6DB8524002506E00E9A515DE0B2FFF78B
:1032E000F8FE641C6D1C032DF6DB8824002506E027
:1032F00019F80510E0B2FFF7ECFE641C6D1C022DFE
:10330000F6DB0F218B20FFF7E4FE00218A20FFF778
:10331000E0FE802448F0B0012046FFF7DAFE641C8E
:103320007178E0B2FFF7D5FE641C48F010018020F0
:10333000FFF7CFFE0A20FEF7CDFD48F020018020E8
:10334000FFF7C7FE0020A2490880DFE00AE08F20D7
:10335000FFF7EEFE9F4908600846007800F0020083
:1033600000B100E0F3E700BF9420FFF7E1FE9A49C7
:1033700008609520FFF7DCFE9749486008464168E1
:10338000006801EB0020944988609620FFF7D0FE8A
:10339000924908609720FFF7CBFE904948600846A5
:1033A0004168006801EB00208C4988608A49886880
:1033B00002F096FB019002F037FACDE9040187494B
:1033C000886802F08DFB019002F02EFACDE902012F
:1033D000DDE9042301F09AFB814A824BCDE9060125
:1033E00002F038F9CDE9080101F0DCFC7E4941F832
:1033F000270079488068B0F5004F14DB7648806874
:103400004FF6FF714840744988600846806880F430
:103410000040886008468068401C886008468068D4
:1034200080F4004088606D488068B0F5004F14DB80
:103430006A4880684FF6FF714840684988600846CE
:10344000806880F40040886008468068401C88607E
:103450000846806880F4004088605F49886802F010
:103460003FFB624941F827005C49886802F038FB5D
:103470005F4941F82700584989684943574A92688B
:10348000564B9B6802FB031002F02AFB059002F0EA
:10349000CBF9CDE9060101F03BFCCDE9080101F0D3
:1034A00081FC82460B9802F033FB5146089002F0F3
:1034B00077FB014609904FF07E5002F04FFA3946F3
:1034C0007F1C4C4A42F821008F20FFF731FE414912
:1034D00008600846007800F0040000B117E00A9880
:1034E000012804D131788020FFF7F3FD0EE0384841
:1034F0000088401C3649088099F8000009888842F5
:1035000000DC04E031788020FFF7E3FD1EE700BF18
:10351000A1218020FFF7DDFD504611B0BDE8F08FFE
:103520002DE9FF4780460D4614461E46DDE90C9AFC
:10353000002703A94046FFF77FFE02A92846FFF7B0
:103540007BFE20128DF80400E0B28DF8050046EAFB
:10355000090040EA0A0738128DF80000F8B28DF829
:1035600001006B4601AA02A903A8FFF789FE00200B
:1035700004B0BDE8F0872DE9FC4704460D46164629
:103580004FF440504FF4807100233222CDE90010F7
:103590004FF07E511848FFF7C3FF32211548FFF75F
:1035A00015FE814632211148FFF710FE07463221F1
:1035B0000F48FFF70BFE80461049484602F0F0FA2C
:1035C00020602F60C6F800802068BDE8FC870000FE
:1035D00000040020FC030020A40B0020B00B0020FE
:1035E0004DF1331F3382573F4C090020140A00204D
:1035F000DC0A00208408002000002046E0DB70493F
:10360000704700000FB4044910B503AA029800F0F7
:103610009FFB10BC5DF814FB2C0000200FB41CB500
:10362000074B06AA7B4469460090059800F077FB9B
:103630000020694600F086FB1CBC5DF814FB00000E
:103640001D07000070B5044685690068C10601D5F4
:10365000302600E02026C00707D070BDD4E9012144
:1036600030469047206A401C20626D1EF6D570BD22
:1036700070B5044685690078C00707D170BDD4E9EC
:10368000012120209047206A401C20626D1EF6D543
:1036900070BD000070B504460D4621461068AFF3BA
:1036A00000802188090502D50F4A7A4402E00E4ABB
:1036B0007A440E32002104F1240305E000F00F06E5
:1036C0000009965D5E54491C0028F7D1207800233C
:1036D000000704D5702D02D009B102231132204613
:1036E000BDE8704000F0ADB8303300002DE9F05F68
:1036F000894604464FF0000ADFF824B1FB44C0F8C5
:1037000020A02046E168884700287DD0252806D0E3
:10371000D4E901219047206A401C2062F1E700258E
:103720005F462046E16888472028064607DB312EA1
:1037300005D2B81910F8200C08B10543F1E7A80725
:1037400001D525F00405C4F81CA00027C4F818A072
:103750002A2E09D0304601F0C1F838B304EB8708AF
:10376000303EC8F8186019E059F8041B204604EBF5
:1037700087029161E1688847012F064618D1E06908
:10378000002820DA25F020051DE0D8F8180000EB0D
:10379000800006EB40003038C8F818002046E16889
:1037A0008847064601F09AF80028EED1012F0AD08A
:1037B0002E2E08D12046E16888477F1C0646022F3E
:1037C00045F02005C4DBA069002803DA404245F03B
:1037D0000105A061E80701D025F01005A6B1A6F10A
:1037E0004100192802D8203645F400654A46314682
:1037F000204625604D46FCF7D3FC60B1012807D078
:10380000ED1D25F0070000E007E000F1080978E76A
:1038100005F1040975E730467AE7206ABDE8F09FB4
:1038200006330000704770477047704710B500F0CE
:10383000A5FA006810BD10B5044600F09FFA0460B8
:1038400010BD2DE9F0470D4699469246044600F119
:1038500024080168880604D5E06921F01001216080
:1038600000E00120A84201DD471B00E00027A1691C
:103870007A1902EB0900081AA0612078C00602D468
:103880002046FFF7DFFE002608E0D4E901211AF800
:1038900006009047206A401C761C20624E45F4DBEF
:1038A0002078C0060AD52046FFF7CCFE06E0D4E912
:1038B000012130209047206A401C2062381EA7F169
:1038C0000107F4DC07E0D4E9012118F8050090476E
:1038D000206A401C2062281EA5F10105F3DC204669
:1038E000FFF7C6FE2078000602D50220BDE8F0876B
:1038F0000120FBE770472DE9FF4F0C461E464FF0B5
:10390000FF378BB0D2E90001DDF860800A908A466B
:10391000C1F30A5505B93D46002108464FF00000A5
:10392000BAF1000F00F4400005DA00EB80004FF41C
:10393000400101EA50004FEA9059B9F1010F00DD52
:10394000B9460A9850EA4A000ED044F61050A5F243
:10395000FF3545432F14B8F1000F1ED07542291EC4
:103960001EDDC9F100021CE0B8F1010F4FF00000AC
:1039700001D0302103E0F24305E02154401CB04265
:10398000FBDB30460022002121540B99C1F808804E
:10399000C1E900200FB0BDE8F08FBD1B6D1CDEE754
:1039A0004A4600DA694206A800F072FA06AB93E8CC
:1039B000070003AB83E8070050460A9900F050FB6C
:1039C0008DE80700A0F500501F3800900398002DE7
:1039D0000ADD42F21F014A460844002303A903906E
:1039E000684600F0B9FD09E0A0F500504A461F38CE
:1039F000002303A90390684600F0C3FD8DE807008B
:103A00000004000C03D04FF0FF30410800E01046E6
:103A1000B8F1000F03D00022009215461EE0751E7B
:103A200005D400F0AFF9303262556D1EF9D5B346BA
:103A30000122084302D000227F1C04E020783028B5
:103A400001D100227F1E002A099784D01DE0112D8C
:103A500007DA00F097F9303262556D1C50EA010226
:103A6000F5D1084302D00098C8B10EE00021681ECD
:103A700005E0235C625C63542254401E491C814271
:103A8000F7DBAB46A81B401E0990002004F80B0092
:103A90000B98099AC0F80880C0E9002B7AE7112634
:103AA0004FF0000857E72DE9F04F88460446D21D35
:103AB00022F0070191B0D1E90001CDE90A0100F03F
:103AC00097FE02460B98C00F01D02D2007E020681A
:103AD000810701D52B2002E0202101EAC000032A42
:103AE000099001D0072A05DB03464146204600F035
:103AF0008FF90BE12078800601D5E06900E006200F
:103B0000B8F1650F814606D0B8F1660F18D0B8F14C
:103B1000670F70D131E00020B9F1110F009001DB87
:103B2000112301E009F101030AAA01A90CA8FFF77A
:103B3000E2FEDDE90C70002609F10105834647E04D
:103B400001204B4600904FF000470AAA01A90CA89B
:103B5000FFF7D1FEDDE90DB00C995D46002610B9E6
:103B600009F101000D18B9EB050003D4C0F1FF36CF
:103B700009F10105A5EB09002BE0B9F1010F01DA0C
:103B80004FF001090020B9F1110F0090484601DD06
:103B9000112300E003460AAA01A90CA8FFF7ABFE17
:103BA000DDE90C704D4600268346207800070AD4D4
:103BB000AB4500DA5D4601A8012D04DD411911F87D
:103BC000011C302907D04F4502DA17F1040F04DA3F
:103BD000012082460FE06D1EEEE7002F02DCED1B98
:103BE0003E4403E0781CA84200DD7D1CB81B00F1B8
:103BF000010A4FF000472078000703D4AA4501DBF3
:103C00004FF0FF3A0021B7F1004F0DF143088DF856
:103C1000431024D002202B23002F01DA7F422D23D2
:103C20000A21021EA0F1010000DC5FB197FBF1FC4C
:103C300097FBF1F201FB1C7C17460CF1300C08F8E5
:103C400001CDEEE7A8F1010003702188090501D537
:103C5000452100E06521A0F1010800F8011C099848
:103C60000FA9A1EB0807FF1D00B10120411901EBCD
:103C7000EA70A1693844081A401EA0612078C00685
:103C800002D42046FFF7DEFC099828B1D4E90121CF
:103C90009047206A401C20622078C00622D520462A
:103CA000FFF7D0FC1EE0002E04DBB34502DD01A8C7
:103CB000805D00E03020D4E901219047206A401C5B
:103CC0002062761CAAF101005FEA000A0AD100F026
:103CD00051F8C0680168405CD4E901219047206A2E
:103CE000401C2062281EA5F10105DCDC07E0D4E9B8
:103CF000012118F8010B9047206A401C2062381EF1
:103D0000A7F10107F3DC2046FFF7B2FC032011B056
:103D100041E6000001694A1C02610878704700B55D
:103D20008FB0CDE901310021059105497944CDE9F4
:103D3000031011466846FFF7D9FC0FB000BD000024
:103D4000E5FFFFFF0A6802F8010B0A6070470000F8
:103D5000074B70B50D467B44FFF7E1FF044628464C
:103D600000F008F910B14FF0FF3070BD204670BD73
:103D7000EDE4FFFF00487047DC0B0020004870476F
:103D8000BC0B002030B5B0F10A024FEA900E71F181
:103D900000034EEA817EB0EB0E0061EB91014FEA29
:103DA000101E4EEA017E10EB0E0041EB11114FEA9E
:103DB000102E4EEA016E10EB0E0041EB11214FEA7E
:103DC000104E4EEA014E10EB0E0041EB114140182F
:103DD00041F100014FEAD00040EA41704FEAD101C1
:103DE00010EB80054FEA810444EA907444EB01042F
:103DF0006D1944EB0404521BA3414FF0000348BF6C
:103E00000A3200D530BD401C41F1000130BD000038
:103E10002DE9F0411F46044603260168072A01F4F4
:103E2000006004DB08B116A505E016A503E008B1A3
:103E300015A500E015A521F010002060A069C01EA6
:103E4000A0610FB1401EA0612046FFF7FBFB4FB100
:103E5000D4E9012138469047206A401C2062C01CEA
:103E6000206206E0206AFAE7D4E9012115F8010B87
:103E70009047761EF8D22046FFF7FAFBBDE8F081A6
:103E80004E414E006E616E00494E4600696E6600FE
:103E90002DE9F047814616468AB0354878440DC86A
:103EA0008DE80D0032487844801C03AC0DC884E8CE
:103EB0000D0041F69B300844372190FBF1F290FB56
:103EC000F1F5A5F1800501FB12041B3C02D564420B
:103ED000012000E00020DFF898A080460027FA4487
:103EE000AAF1BE0A0EE0E0070AD03246684607EBA8
:103EF000470101230AEB810100F043FB8DE8070035
:103F000064107F1C002CEED1194F7F44AE3F19E0A6
:103F1000E80715D007EB04100DF1180A90E80E0021
:103F20008AE80E00C068F04201D198190890324624
:103F3000012306A903A800F024FB03AB83E80700D4
:103F40006D10641C002DE3D14FF001033246694629
:103F5000B8F1000F03A802D000F0FEFA01E000F073
:103F600010FBC9E90001C9F808200AB0BDE8F087D4
:103F7000942C0000007B00F08000704700487047E0
:103F8000BC0B00207546FFF7F9FFAE4605006946F9
:103F9000534620F00700854618B020B5FCF748FAD4
:103FA000BDE820404FF000064FF000074FF000083A
:103FB0004FF0000B21F00701AC46ACE8C009ACE8BB
:103FC000C009ACE8C009ACE8C0098D46704710B51F
:103FD0000446AFF300802046BDE81040FCF7FDB872
:103FE0004FF0013C50F8042B51F8043B9A4221D188
:103FF000A2EB0C03934313EACC1317D150F8042B14
:1040000051F8043B9A4215D1A2EB0C03934313EAF7
:10401000CC130BD150F8042B51F8043B9A4209D130
:10402000A2EB0C03934313EACC13DBD04FF0000058
:10403000704700BFD01A01BAB1FA81F101F018013E
:1040400022FA01F0CB40C1F12001DBB2C0B2C01AAC
:104050002CFA01F3D11A914311EAC311E6D170474A
:104060005FEA400C08BF91F0000F4FEA8C234FEA43
:10407000C12243EA51514FEA1C5018BF00F5F040ED
:104080004FEA300018BF41F000415FEA6C5C00F07D
:104090002980BCF1FF3F08BF40F080407047130CFF
:1040A00006BF12044FF0100C4FF0000C130E04BFAB
:1040B00012020CF1080C130F04BF12010CF1040CD6
:1040C000930F04BF92000CF1020CD30F04BF5200F7
:1040D0000CF1010C11464FF00002A0F11F00A0EB03
:1040E0000C00704711F0004F08BF704731F00041DD
:1040F0003FF4D5AF0B0C06BF09044FF0100C4FF086
:10410000000C0B0E04BF09020CF1080C0B0F04BFCE
:1041100009010CF1040C8B0F04BF89000CF1020C97
:10412000CB0F04BF49000CF1010CCCF12003A0EB34
:104130000C0022FA03F302FA0CF241EA030100F147
:104140000100704720F07F4C80EA030023F07F4796
:10415000ACEB070303F57C5300F0004003F1FF03D1
:104160002DE980494FEA154B09B44FEA144325EA7B
:104170000B4E24EA03480FF2042606EB13274908E6
:104180003E785FEA320203FB0667C7F5000707FBCC
:1041900006F64FEA54374FEAD64606F1020607FB09
:1041A000066CCCF1005C4FEA1C472CEA074C07FB7D
:1041B00006F40CFB06F504EB15464FEA961634BFE1
:1041C00000204FF000404FEAD13706FB07FC4FEAD2
:1041D0001C4C0CFB0BF7D21B03FB0CF761EB07012C
:1041E0000CFB0EF7B0EB074072EB17420CFB08F725
:1041F00034BFA2EB0742B2EB074261EB17414FEA33
:104200000C444FEA910706FB07FC4FEA1C4C0CFBE1
:104210000BF7B0EBC74072EB573203FB0CF734BF20
:10422000A2EBC742B2EBC74261EB57310CFB0EF772
:10423000B0EBC70072EB57720CFB08F734BFA2EB70
:10424000C702B2EBC70261EB5771039F4FEA81616E
:1042500041EA921104EBCC044FEAD1374FEA826273
:1042600006FB07FC42EA90124FEA80604FEA1C4CC2
:104270000CFB0BF7D21B03FB0CF761EB07010CFBEC
:104280000EF7B0EB074072EB17420CFB08F734BF98
:10429000A2EB0742B2EB074261EB17414FEA8C55A4
:1042A0004FEA910704EB9C2406FB07FC4FEA1C4CE9
:1042B0000CFB0BF7B0EBC74072EB573203FB0CF76C
:1042C00034BFA2EBC742B2EBC74261EB57310CFBE4
:1042D0000EF7B0EBC70072EB57720CFB08F734BF58
:1042E000A2EBC702B2EBC70261EB577115EB4C258D
:1042F0004FEA816141EA92114FEA82624FEAD13777
:1043000042EA901206FB07FC44F100044FEA806089
:104310004FEA1C4C0CFB0BF7D21B03FB0CF761EBB9
:1043200007010CFB0EF7B0EB074072EB17420CFBDA
:1043300008F734BFA2EB0742B2EB074261EB17412B
:1043400015EB1C154FEA813141EA92414FEA823266
:1043500042EA90424FEA80304FEA0C7644F1000482
:1043600048EA03434EEA0B484FF0000EB2EB080C4C
:1043700071EB030724BF624639464EEB0E0E4FF039
:10438000000B0018524149414BEB0B0BB2EB080CF0
:1043900071EB03077BF1000B24BF624639464EEBFD
:1043A0000E0E4FF0000B0018524149414BEB0B0B26
:1043B000B2EB080C71EB03077BF1000B24BF6246E4
:1043C00039464EEB0E0E51EA020718BF46F00106C1
:1043D00016EB0E7655F1000254F1000103D5BDE84D
:1043E0008901BDE80088BDE88901BDE80048B6192B
:1043F000524141EB0101A3F10103704780807F7EB0
:104400007D7C7B7A7978777676757473727171704A
:104410006F6E6E6D6C6C6B6A6A69686867666665FC
:104420006464636362616160605F5F5E5E5D5D5C8A
:104430005C5B5B5A5A5959585857575656555555FB
:104440005454535352525251515050504F4F4F4E5B
:104450004E4D4D4D4C4C4C4B4B4B4A4A4A494949A9
:1044600048484847474747464646454545444444EB
:10447000444343434342424242414141002B9C4614
:1044800030D477002BD01CB54FEA370703B44FF078
:1044900010004FF01001BAF1000F06D0BCF1000F70
:1044A000DCBF40F0080040F008014FF000000FBCF6
:1044B000BDE810400BF1010BBBF1010F08BF5FEA33
:1044C000170722BF12F1010211F101014FF0004163
:1044D00043F1000300F0004043EA00007047F9D3C5
:1044E0005708D0E746EA064613F1400F4FEA164652
:1044F0001FDD13F1200FDFBF16430A4600212033D2
:104500005B42BED0C3F1200746EA064602FA07F72F
:104510004FEA164646EA0706C3F1200722FA03F2DD
:1045200001FA07F721FA03F14FF0000342EA07020C
:10453000A7E746EA020646EA06464FEA164646EA74
:104540000106BCBF46EA0646360C4FF000034FF0AA
:1045500000024FF0000194E72DE9804C9A46934603
:1045600070B491E8380007C831EA400C48BF34EA1B
:10457000430C03D5FFF7E6FDFFF780FFF0BCBDE875
:10458000008C2DE9804C9A46934670B491E838002F
:1045900007C810F0804F08BF13F0804F03D100F020
:1045A00005F8FFF76BFFF0BCBDE8008C20F07F47FB
:1045B00080EA030023F07F4C07EB0C03A3F57C5348
:1045C00000F00040A3F1FE0392F0000F00F0B38072
:1045D00095F0000F00F077802DE901494FEA114076
:1045E0004FEA144621EA004800FB06FC24EA06478D
:1045F00008FB06F607FB08F800FB07F718EB064870
:104600004CEB164C4FEA124B18EB07484FEA154695
:104610004CEB174022EA0B4E0BFB06FC25EA064743
:104620000EFB06F607FB0EFE0BFB07F71EEB064E16
:104630004CEB164C4FF000061EEB074E4CEB174BA5
:1046400018EB0B0840F1000018EB0E0B58EB0008BC
:1046500040F100008F1A4FF000013CBFC943661BB8
:1046600014BFB5EB040C00213CBFC943F61B4FEA55
:1046700017444EEA8E0E27EA04454FEA1C4704FB16
:1046800007622CEA074C05FB07F70CFB05F604FB59
:104690000CFC16EB074642EB174216EB0C4642EBBE
:1046A0001C421BEB060658EB0202414146EA9E06FD
:1046B00001D5BDE80189B619524141EB0101A3F1D1
:1046C0000103BDE801894FEA14454FEA114724EA86
:1046D000054621EA074C05FB07F406FB07F70CFB30
:1046E00006F105FB0CFC11EB074144EB17444FEAC4
:1046F000124711EB0C4144EB1C4422EA074C05FB2A
:1047000007F206FB07F70CFB06F605FB0CFC16EBA5
:10471000074642EB174216EB0C4642EB1C456A1863
:1047200054F1000148BF7047B619524141EB0101F5
:10473000A3F10103704795F0000F37D04FEA114203
:104740004FEA144721EA024624EA074C02FB07F12C
:1047500006FB07F70CFB06F402FB0CFC14EB07440A
:1047600041EB17414FEA154714EB0C4441EB1C4158
:1047700025EA074C02FB07F506FB07F70CFB06F6DC
:1047800002FB0CFC16EB074645EB174516EB0C46F7
:1047900045EB1C42121951F1000148BF7047B61990
:1047A000524141EB0101A3F1010370474FEA144567
:1047B0004FEA114724EA054621EA074C05FB07F1B9
:1047C00006FB07F70CFB06F24FF0000605FB0CFC9E
:1047D00012EB074241EB174112EB0C4251EB1C412B
:1047E00048BF7047921841EB0101A3F101037047E4
:1047F000490050EAC12018BF04204A0D18BF40F0FC
:10480000010040F2FF72B2EB515F08BF40F00200BE
:10481000012808BF052070472DE9F0414F1E00EB2D
:10482000C7010446D1E9000115461E4637F00602CD
:104830000DD02A46334600F01DFD7F1E04EBC70352
:10484000D3E9002300F0E0FA37F00602F1D1022F9D
:1048500025D0042F13D0062F18BFBDE8F0812A46BB
:10486000334600F007FDD4E90A2300F0CDFA2A46CA
:10487000334600F0FFFCD4E9082300F0C5FA2A46CD
:10488000334600F0F7FCD4E9062300F0BDFA2A46CF
:10489000334600F0EFFCD4E9042300F0B5FA2A46D1
:1048A000334600F0E7FCD4E9022300F0ADFA2A46D3
:1048B000334600F0DFFCD4E90023BDE8F04100F00E
:1048C000A3BA012201F013BB00F09EBA024A0020F5
:1048D000110701F00CBB000001FDFFFF30380A2872
:1048E00001D2012070470020704700002DE9F84FE9
:1048F00004460D4621F0004000917349814211DCCD
:104900007249884201DC06D12CB120462946BDE817
:10491000F84FFFF7D6BF6E48002DCCBF6D496E49EA
:10492000BDE8F88F6D49814211DD6D498142D8BFE4
:104930004FF0FF366DDD20462946FFF759FF04286A
:1049400008BFFFF7C3FF20462946BDE8F88F654939
:10495000654F25F00045814233DD6449814219DD10
:10496000002632464FF080432046294600F04CFA9C
:1049700080468A4601222046294601F0B8FA0022E4
:104980003B4600F067FE4246534600F0EDFA04460F
:104990000D463EE001260022BA463B462046294607
:1049A00000F032FA80460F46002253462046294640
:1049B00000F050FE42463B4600F0D6FA04460D4653
:1049C00027E04B4981421BDDDFF828A102260022A7
:1049D00053462046294600F04DFC00223B4600F09D
:1049E00013FA80460F46002253462046294600F01F
:1049F00031FE42463B4600F0B7FA04460D4608E059
:104A0000032622462B4600203B4900F0ADFA04461F
:104A10000D4622462B461046194600F02BFC8B46CD
:104A2000824602460B4600F025FC07460246334804
:104A300088460B4606217844FFF7EEFE52465B4659
:104A400000F018FC82462E488B463A464346052124
:104A50007844FFF7E1FE3A46434600F00BFC02467D
:104A60000B46002E504659460CDA00F0CDF922468E
:104A70002B4600F0FFFB01B022462B46BDE8F04F6D
:104A800000F0F6BC00F0C0F922462B4600F0F2FB25
:104A90001C4A7A4402EBC603D3E9002300F0DAFD96
:104AA00022462B4600F0D6FD174A7A4402EBC60395
:104AB000D3E9002300F0DCFC009A002AB8BF81F0A3
:104AC0000041BDE8F88F0000000010440000F07FB6
:104AD000182D4454FB21F93FFB21F9BF0000DC3FB6
:104AE0000000203E0000F33F0000F03F0000E63FE2
:104AF000008003400000F83F0000F0BF46200000A7
:104B000004200000A21F00006A1F00002DE9F04DE4
:104B10009446CCF1000423F000464CEA0404524FC2
:104B200046EAD4749A46884621F00042BC4206D830
:104B3000454240EA050442EAD474BC4204D9BDE8C7
:104B4000F04D6246FFF7C0BEAAF14055A5F17F6562
:104B500055EA0C040BD0022404EAAA74434DDFF892
:104B600010E144EAD87452EA000B04D00CE0BDE82E
:104B7000F04DFFF7BBBE002C14BF012CBDE8F08D3B
:104B8000022C30D0032C32D056EA0C0B0AD0BE4295
:104B900020D1BA4209D126F0804622F08042334625
:104BA000114617E000291ADB25E0DFF8C8B0FB4406
:104BB000002C04BFDBE90001BDE8F08D012C02BF31
:104BC000DBE9000181F00041BDE8F08D022C0AD044
:104BD000032C0CD0BA4212D1B8F1000F0BDA2348E3
:104BE0002549BDE8F08D28462449BDE8F08D2846CA
:104BF0007146BDE8F08D1D482149BDE8F08D921B3E
:104C000012153C2AC4BF19481D490EDCBAF1000F29
:104C1000BEBF12F13C0F0020014606DB624600F0E9
:104C2000A3F921F00041FFF761FE002C08BFBDE8A9
:104C3000F08D012C04BF81F00041BDE8F08D114AD8
:104C4000114B022C07D000F005FD2A46BDE8F04DBF
:104C50000A4B00F0FFBC00F0FDFC2A46BDE8F04D19
:104C6000064B00F005BC00000000F07F182D4454F6
:104C7000FB2109C0FE1E0000FB21F9BFFB210940FA
:104C8000FB21F93F075C143326A6A13C2DE9F04136
:104C900004460D4616461F46DDF81880EA19D1B2C3
:104CA000A219D0B24246FDF753FDEA19D1B2A21BB8
:104CB000D0B24246FDF74CFDEA1BD1B2A219D0B2E8
:104CC0004246FDF745FDEA1BD1B2A21BD0B24246D7
:104CD000FDF73EFDAA19D1B2E219D0B24246FDF766
:104CE00037FDAA19D1B2E21BD0B24246FDF730FD22
:104CF000AA1BD1B2E219D0B24246FDF729FDAA1B88
:104D0000D1B2E21BD0B24246FDF722FDBDE8F081F0
:104D10002DE9F04106460F4600F0B6FB041E0D4695
:104D200018BF0120284320F00040C0F17F6000F14F
:104D3000E040C00F0ED0301C18BF0120384320F0D7
:104D40000040C0F17F6000F1E040C00F04BF0120CF
:104D5000FEF771FD20462946BDE8F08102880B88E8
:104D60005A4002800A8803885A400A8002880B88C9
:104D70005A4002807047000010B500290AD0087818
:104D8000002807D005487844FFF72AF9002801D009
:104D9000002010BD0248784410BD0000E61D000050
:104DA000DE1D000021F00042A2F16052B2F5801F2A
:104DB00001F0004328BFD2F17F6C0BD95FEA001CE1
:104DC00043EAC20242EB507018BF704728BF20F080
:104DD00001007047B2F5801FBCBF184670474FEA0C
:104DE000410C1CF5001F02D2084600F0A0BF70B5B0
:104DF00000F0EAFA00000089FFF7F6BF4FF000402C
:104E0000A0F580007047000010B591EA030F48BF7D
:104E100083F0004300F12684841A71EB030C05D261
:104E2000121943EB0C03001B61EB0C01DFF824E1CA
:104E30004FEA1154A4EB135C1EEA430F18BF9EEA1D
:104E4000445F73D023EA0E03DCF1200E21EA045103
:104E500043F4801332D322FA0CFE10EB0E0023FA37
:104E60000CFE41EB0E01CCF1200E03FA0EFE10EB0E
:104E70000E0051F10001B1F5801FCCF1200E32D2AD
:104E800001EB045112FA0EF2BDE8104058BF704712
:104E9000401C38BF5FEA420218BF7047002814BFA9
:104EA00020F0010041F100014FEA410313F5001F1A
:104EB00038BF7047A1F1C04100F0D4BA012A43EBDA
:104EC0000302ACF1200CDCF11F0E32BF4FF0000EDC
:104ED00023FA0CF310EB030041EB0451B4EB115F28
:104EE000D0D0A1EB045101F5801149085FEA3000F0
:104EF00001EB04510ED350F1000038BF12FA0EFE40
:104F000008D1BDE81040C9E7401C38BF5FEA420243
:104F1000CAD1C3E7BDE810404FEA410313F5001FB3
:104F200038BF7047A1F1C04100F09CBA9EEA445FCF
:104F300008D011EA5E0FBDE8104004BF01F0004147
:104F400000207047BDE8104070B500F03DFA00BF8A
:104F500064FBBE3E0000E0FF02494FF0000000F09D
:104F600094BF00BF0000F87F2DE9C04130B4DFF8E6
:104F7000A0C23CEA111418BF3CEA131400F0EC8004
:104F800081EA03051CEA111444EAD57418BF1CEA2F
:104F9000131500F0C780A4EB05044FF0004545EA67
:104FA000C12145EAC32341EA505143EA525304F177
:104FB0007F74994204F500344FEAC0204FEAC222C0
:104FC00008BF904200F09C804FEA13650FF2401634
:104FD000765D4FEA134506FB05F7C7F1807706FBC0
:104FE00007F74FEAD737A7FB03687642C8F5803842
:104FF000A7FB06CE38BFA8F1010807FB08E64FF073
:10500000000EA6FB028CE6FB03CEDCF1000CCEF119
:10501000004E38BFAEF1010EA6FB0C584FF0000752
:105020004FF00005E6FB0E87A1FB08C6A0FB07CEEC
:1050300016EB0E0645F10005E1FB076515F1E04EA4
:105040007EBFA4F580345FEA46066D4116F1800705
:1050500045F100054FEA17274FEA066647EA05675C
:10506000A6F1DE46B6F1805F4FEA15251FD9384616
:1050700024F0010C05EBC471BCF1FE6F01EB0C11C7
:1050800002D8F0BCBDE8008124425CBF01F5801E5F
:105090009EEAC47F02D4F0BCBDE80081244238D42B
:1050A000F0BCA1F1C041BDE8004100F0DBB94FEA1E
:1050B000D22242EA43524FEAD323A7FB02864FEAA9
:1050C000D02040EA415007FB03661EEA0E0F4FEA6C
:1050D000D12105FB026658BFA6EB0056B6EB005681
:1050E0004FEA520E4EEAC37E18EB0E0E56EB530EED
:1050F000BDD518EB02085E417F1C55F10005B6E7EF
:105100004FF480154FF000074FF000064FF00008F5
:10511000ADE7F0BC4FF0000001F1C04101F00041EB
:10512000BDE8008111EA0C1F0CEA131500D00CE059
:1051300013EA0C1F00F025804FF00000F0BC81EA5C
:10514000030101F00041BDE80081F0BCBDE8004171
:1051500081EA030100F086B9F0BCBDE8004170B5FA
:1051600000F032F9097EFC3E00F007B881EA030145
:105170004FF0000001F00041704781EA030100F0A8
:1051800071B9F0BCBDE800414FF000002149704703
:10519000FFFDFBF9F7F5F4F2F0EEEDEBE9E8E6E4FC
:1051A000E3E1E0DEDDDBDAD8D7D5D4D3D1D0CFCD83
:1051B000CCCBCAC8C7C6C5C4C2C1C0BFBEBDBCBBBC
:1051C000BAB9B8B7B6B5B4B3B2B1B0AFAEADACABB7
:1051D000AAA9A8A8A7A6A5A4A3A3A2A1A09F9F9E91
:1051E0009D9C9C9B9A999998979796959594939343
:1051F000929191908F8F8E8E8D8C8C8B8B8A8989DA
:10520000888887878685858484838382828181805C
:105210000000FF070000F87F4FEA1153A3F58063F9
:10522000D3F11E03A8BFD3F1200C08DB4FF00042DE
:1052300042EAC12252EA505232FA03F07047094260
:105240000BD4102BC4BF0020704703F5787CBCF151
:10525000FF3F05D04FF0FF3070474FF00000704720
:1052600070B500F0B1F800BF49922480002070476B
:10527000F0E70000DFF848C170B51CEA111E1EBF40
:105280001CEA13159EEA0C0F95EA0C0F00F06F80D4
:1052900081EA030423EA4C134EEAD47E21EA4C113E
:1052A00041F4801143F48013AE44A1FB024CA0FBF7
:1052B0000365AEF17F7E361955EB0C05A1FB034C5F
:1052C0004CF10003A0FB021C16EB0C06654153F1E8
:1052D0000003094218BF46F0010613F4007F0BD10A
:1052E0004FEA03314FEA0530340341EA155140EAF1
:1052F00016506FF003020AE04FEAC3214FEAC520BF
:10530000F40241EA555140EA56506FF0020202EBB6
:105310002E4201EB025585EACE710AD05FEA440CB9
:1053200018BF24F0004450F1000041F1000120EAD0
:10533000D47040F2FE7C624500D270BDA84214BF1A
:105340004FF080444FF04044002E08BF0024BEF1CF
:10535000806FA8BFA1F1C041BDE8704080F282809B
:105360004FF0000001F1C04101F0004170479EEA9A
:105370000C0F0CEA131518BF95EA0C0F06D04FF06E
:10538000000081EA030E0EF0004170BD00F01CF831
:105390008900013E00F007B800F009B84FEA430C5D
:1053A0005FEA5C5C08D081EA030100F05BB84FEA79
:1053B000410C5FEA5C5CF6D14FF000000149704798
:1053C0000000FF070000F87F0EF1020E2EF0030E22
:1053D0005EF8046B364205D4012A43EB030515F54C
:1053E000001F12D8012841EB010C1CF5001F0CD83E
:1053F0000ED14FEAD17C15F5001F0CEB4C0C0CF1D3
:10540000020C08BF4CEBD37C04E04FF0080C01E029
:105410004FEAD37C0CEB4C0526FA05F606F007069E
:10542000B6F1040C06D20EEB860CBDE870404CF0D1
:10543000010C6047DFE80CF0090B02024FF000415D
:105440004FF00000A1F5002170BD1946104601285B
:1054500051EB010418BFD4F5001484BF002001F003
:10546000004170BD0808A0F500114FEA31017047F6
:1054700091EA030F10B581F000413FF5CDAC83F008
:10548000004300F0EFB800002DE9F04101F5801C69
:10549000BCF5001FC0F2C3804FEA115C21EA0C5139
:1054A0000CF1FD0C41F480115FEA5C0C0CF5C07C42
:1054B00001D3400049413DA4890241EA905187024D
:1054C0008E0E0A0CA45D04FB04F602FB06F6C6F180
:1054D0004046A4FB0662F60D46EA422606FB06F4A9
:1054E000A4FB01235242C3F1404338BF5B1EA6FB1D
:1054F00002420024E6FB0324D20B42EA4446A6FB08
:105500000623A1FB02E2A3FB07E4A4184FF000026C
:1055100052F10002E3FB01426442C2F1404E38BF47
:10552000AEF1010EA6FB04234FF00002E6FB0E32A3
:10553000A2FB03464FF00004B61954F10004E2FB4D
:105540000264A1FB06E6A4FB07E816EB08064FF091
:10555000000858F10008E4FB01687642C8F14058A1
:1055600038BFA8F10108A2FB06E4A3FB08E52D194A
:105570004FF0000454F10004E2FB0854A1FB05E6DF
:10558000A7FB04E818EB06084FF0000656F10006EA
:10559000E1FB048618F1200556F10006A809A8F1E0
:1055A0001B08B10908F03F08B8F10A0F40EA86600D
:1055B0001CD901EB0C51BDE8F08100BFFCF5EEE811
:1055C000E2DDD8D3CFCBC7C3C0BDB9B6B4B1AEACA2
:1055D000A9A7A5A3A19F9D9B9A9896959392908F1A
:1055E0008D8C8B898887868584838281A0FB006867
:1055F00000FB01F208EB4208B8EB872807D5341806
:1056000058EB0104D5D5401C51F10001D1E7341A03
:1056100078EB0104CDD4401E71F10001C9E75FEAC7
:105620004C0C5FEA9C5C0DD105D34FF0000001F0FB
:105630000041BDE8F081BDE8F04170B5FFF7C4FE60
:105640006DDBFFBEBDE8F0414FF000000049704740
:105650000000F87F10B591EA030F48BF83F00043C4
:105660003FF5DAAB841A71EB030C07D212198CF0F8
:10567000004C43EB0C03001B61EB0C01DFF8A4E1D1
:105680004FEA1154A4EB135C1EEA430F18BF9EEAC5
:10569000445F00F0B08023EA6E03524221EA0451D5
:1056A000C3EB6E0338BF5B1EDCF1200E25D322FA5C
:1056B0000CFE10EB0E0043FA0CFE41EB0E01CCF198
:1056C000200E03FA0EFE10EB0E0051F10001CCF19A
:1056D000200E29D412FA0EF201EB0451BDE810405D
:1056E00058BF7047401C1CBFB2F1004F70470028E4
:1056F0000CBF491C20F00100704712EB020E43EB77
:10570000030218BF4FF0010E4EEA4202ACF1200C2A
:10571000DCF11E0E54D943FA0CFE10EB0E0051F1D1
:10572000FF31CCF11E0ED5D50EF1010E12FA0EFE90
:10573000404141EB010101EB445C5FEA5C5C10D944
:1057400010EBDE7001EB045138BFBEF1004FBDE835
:10575000104018BF704700280CBF491C20F0010002
:10576000704730D24FEAD42C11F5001124F40064B4
:105770001BD0B1FA81F20B3AA41AA41ED2F1200375
:10578000914030FA03F31943904001EBCC71002CA7
:1057900001EB0451BDE81040A8BF704701F1C041C2
:1057A0004FF0000001F000417047B0FA80F310FAAA
:1057B00003F100D110BDE41A173C4805C90AE4E71B
:1057C00001EB045110BD491001EB0451BDE810403C
:1057D0004FEA300002E04FF0000170474A0008BF76
:1057E0000042F8D0B2F5001F28BF704701F0004119
:1057F0004FF0000070479EEA445F07D011EA5E0F49
:10580000BDE8104004BF002100207047BDE81040F3
:1058100070B5FFF7D9FD00BF40DFF63E83F00041D1
:10582000104670470000E0FF43004FEAD30C4FEAF8
:105830003C0C43401FBF40070CF1605113F0FE4F7A
:1058400070471CF0006F03D100200CF0004170473E
:105850000CF0004343EA507010B540EACC0000F071
:1058600020FA00BF000000924FEA0001FFF7FABDE6
:105870004FF000414FF00000A1F5002170470000FB
:1058800090EA010F48BF81F0004100F18E82421A78
:105890003CBF801A89184FEAD0524FF07F4C1CEA67
:1058A000410FA2EBD15318BF9CEA026F00F03B807E
:1058B0004FF0004C4CEA00204CEA012121FA03FC95
:1058C00010EB0C0C1ED202F1FF325FEA1C2040EB01
:1058D000C25038BF70471CF07F0F4FEA400C18BF12
:1058E000BCF17F4F38BF7047C3F12003994008BF18
:1058F00020F00100BCF17F4F38BF7047A0F1C040DD
:1059000000F015BA4FEA3C00000A40EBC25028BF35
:105910001CF0FF0F4FEA400CE6D018BFBCF17F4FE0
:1059200038BF7047EAE79CEA026F05D010EA5C0FC7
:1059300008BF00F00040704710B500F0B2F900BF9A
:1059400064FBBE3E401058BFC0F14040491058BFF4
:10595000C1F140418142EFF3008070474FF47F0C6A
:105960001CEAD0121EBF1CEAD11392EA0C0F93EA74
:105970000C0F00F0858090EA010F48BF42F480725E
:1059800040F4000C41F400002CF07F4120F07F40F7
:1059900000B58142A2EB03020FF2081CACEB504EA3
:1059A000C0F100009EF800E04FEA4E0E00FB0EFC36
:1059B00038BF49004FEA2C1C02F5FA020CFB0EF32B
:1059C0004FEACE1E4FEA112C4FEAC1210EEB635E67
:1059D00042EB22420EFB0CFC4FEA1C5300FB03116E
:1059E0004FEA112C4FEA01310EFB0CFC4FEADC4C64
:1059F00000FB0C11C14228BF09184CEB03335DF8C2
:105A000004EB10EB410143EBC250B2F57C0F38BF01
:105A1000704729D512F0F00F1CBF00F1C04000F014
:105A200000407047008182838485868788898B8CBB
:105A30008D8E8F919293959697999A9C9D9FA0A2F7
:105A4000A3A5A7A8AAACAEB0B2B3B5B7B9BCBEC047
:105A5000C2C5C7C9CCCED1D4D7D9DCDFE2E6E9ECE8
:105A6000F0F3F7FAFE0000004FEA400C0CF1807CE6
:105A7000BCF17E4F28BF7047B0F1C04000F057B96D
:105A800090EA010F0CEAD11348BF42F480726245DC
:105A900038BF634507D213F47F0F16D080EA0100A8
:105AA00000F00040704710B500F0FBF8097EFC3EA6
:105AB00000F005B880EA010000F00040704780EA7D
:105AC000010000F0004000F032B912F47F0F04BF73
:105AD0000248704780EA010000F029B90000C07F49
